{
  "contractName": "WieBetaaltWat",
  "abi": [
    {
      "constant": true,
      "inputs": [
        {
          "name": "",
          "type": "address"
        }
      ],
      "name": "members",
      "outputs": [
        {
          "name": "name",
          "type": "string"
        },
        {
          "name": "walletAddress",
          "type": "address"
        },
        {
          "name": "balance",
          "type": "int256"
        }
      ],
      "payable": false,
      "stateMutability": "view",
      "type": "function"
    },
    {
      "constant": true,
      "inputs": [
        {
          "name": "",
          "type": "uint256"
        }
      ],
      "name": "expenses",
      "outputs": [
        {
          "name": "title",
          "type": "string"
        },
        {
          "name": "amount",
          "type": "uint256"
        },
        {
          "name": "payer",
          "type": "address"
        }
      ],
      "payable": false,
      "stateMutability": "view",
      "type": "function"
    },
    {
      "inputs": [],
      "payable": false,
      "stateMutability": "nonpayable",
      "type": "constructor"
    },
    {
      "constant": false,
      "inputs": [
        {
          "name": "name",
          "type": "string"
        }
      ],
      "name": "addMember",
      "outputs": [],
      "payable": false,
      "stateMutability": "nonpayable",
      "type": "function"
    },
    {
      "constant": false,
      "inputs": [
        {
          "name": "title",
          "type": "string"
        },
        {
          "name": "amount",
          "type": "uint256"
        }
      ],
      "name": "createExpense",
      "outputs": [],
      "payable": false,
      "stateMutability": "nonpayable",
      "type": "function"
    },
    {
      "constant": false,
      "inputs": [],
      "name": "deposit",
      "outputs": [],
      "payable": true,
      "stateMutability": "payable",
      "type": "function"
    },
    {
      "constant": false,
      "inputs": [],
      "name": "payMembers",
      "outputs": [],
      "payable": false,
      "stateMutability": "nonpayable",
      "type": "function"
    },
    {
      "constant": false,
      "inputs": [],
      "name": "closeGroup",
      "outputs": [],
      "payable": false,
      "stateMutability": "nonpayable",
      "type": "function"
    },
    {
      "constant": false,
      "inputs": [],
      "name": "openGroup",
      "outputs": [],
      "payable": false,
      "stateMutability": "nonpayable",
      "type": "function"
    },
    {
      "constant": true,
      "inputs": [],
      "name": "getPersonalBalance",
      "outputs": [
        {
          "name": "",
          "type": "string"
        },
        {
          "name": "",
          "type": "int256"
        }
      ],
      "payable": false,
      "stateMutability": "view",
      "type": "function"
    },
    {
      "constant": true,
      "inputs": [],
      "name": "getContractBalance",
      "outputs": [
        {
          "name": "",
          "type": "uint256"
        }
      ],
      "payable": false,
      "stateMutability": "view",
      "type": "function"
    },
    {
      "constant": true,
      "inputs": [],
      "name": "getGroupStatus",
      "outputs": [
        {
          "name": "",
          "type": "string"
        }
      ],
      "payable": false,
      "stateMutability": "view",
      "type": "function"
    }
  ],
  "bytecode": "0x608060405234801561001057600080fd5b506000600260006101000a81548160ff021916908315150217905550611ded8061003b6000396000f3fe6080604052600436106100a9576000357c01000000000000000000000000000000000000000000000000000000009004806308ae4b0c146100ae5780636f9fb98a146101b2578063918f9687146101dd57806396a700ac146102635780639e05aeda1461027a578063ac3d1aea1461030a578063af4afe0a1461039a578063d0e30db014610488578063e7d06ca014610492578063edbd48e5146104a9578063ff5cea0014610540575b600080fd5b3480156100ba57600080fd5b506100fd600480360360208110156100d157600080fd5b81019080803573ffffffffffffffffffffffffffffffffffffffff169060200190929190505050610557565b60405180806020018473ffffffffffffffffffffffffffffffffffffffff1673ffffffffffffffffffffffffffffffffffffffff168152602001838152602001828103825285818151815260200191508051906020019080838360005b8381101561017557808201518184015260208101905061015a565b50505050905090810190601f1680156101a25780820380516001836020036101000a031916815260200191505b5094505050505060405180910390f35b3480156101be57600080fd5b506101c7610639565b6040518082815260200191505060405180910390f35b3480156101e957600080fd5b506102616004803603602081101561020057600080fd5b810190808035906020019064010000000081111561021d57600080fd5b82018360208201111561022f57600080fd5b8035906020019184600183028401116401000000008311171561025157600080fd5b909192939192939050505061066d565b005b34801561026f57600080fd5b50610278610993565b005b34801561028657600080fd5b506103086004803603604081101561029d57600080fd5b81019080803590602001906401000000008111156102ba57600080fd5b8201836020820111156102cc57600080fd5b803590602001918460018302840111640100000000831117156102ee57600080fd5b909192939192939080359060200190929190505050610ada565b005b34801561031657600080fd5b5061031f6110f1565b6040518080602001828103825283818151815260200191508051906020019080838360005b8381101561035f578082015181840152602081019050610344565b50505050905090810190601f16801561038c5780820380516001836020036101000a031916815260200191505b509250505060405180910390f35b3480156103a657600080fd5b506103d3600480360360208110156103bd57600080fd5b8101908080359060200190929190505050611181565b60405180806020018481526020018373ffffffffffffffffffffffffffffffffffffffff1673ffffffffffffffffffffffffffffffffffffffff168152602001828103825285818151815260200191508051906020019080838360005b8381101561044b578082015181840152602081019050610430565b50505050905090810190601f1680156104785780820380516001836020036101000a031916815260200191505b5094505050505060405180910390f35b610490611272565b005b34801561049e57600080fd5b506104a76115e0565b005b3480156104b557600080fd5b506104be611938565b6040518080602001838152602001828103825284818151815260200191508051906020019080838360005b838110156105045780820151818401526020810190506104e9565b50505050905090810190601f1680156105315780820380516001836020036101000a031916815260200191505b50935050505060405180910390f35b34801561054c57600080fd5b50610555611a63565b005b6000602052806000526040600020600091509050806000018054600181600116156101000203166002900480601f0160208091040260200160405190810160405280929190818152602001828054600181600116156101000203166002900480156106035780601f106105d857610100808354040283529160200191610603565b820191906000526020600020905b8154815290600101906020018083116105e657829003601f168201915b5050505050908060010160009054906101000a900473ffffffffffffffffffffffffffffffffffffffff16908060020154905083565b60008030905064e8d4a510008173ffffffffffffffffffffffffffffffffffffffff163181151561066657fe5b0491505090565b6000803373ffffffffffffffffffffffffffffffffffffffff1673ffffffffffffffffffffffffffffffffffffffff16815260200190815260200160002060010160009054906101000a900473ffffffffffffffffffffffffffffffffffffffff1673ffffffffffffffffffffffffffffffffffffffff163373ffffffffffffffffffffffffffffffffffffffff1614151515610772576040517f08c379a00000000000000000000000000000000000000000000000000000000081526004018080602001828103825260208152602001807f4d656d6265722063616e2068617665206f6e6c79206f6e65206164647265737381525060200191505060405180910390fd5b600260009054906101000a900460ff161515156107f7576040517f08c379a000000000000000000000000000000000000000000000000000000000815260040180806020018281038252600f8152602001807f47726f757020697320636c6f736564000000000000000000000000000000000081525060200191505060405180910390fd5b6107ff611cac565b60606040519081016040528084848080601f016020809104026020016040519081016040528093929190818152602001838380828437600081840152601f19601f8201169050808301925050505050505081526020013373ffffffffffffffffffffffffffffffffffffffff16815260200160008152509050806000803373ffffffffffffffffffffffffffffffffffffffff1673ffffffffffffffffffffffffffffffffffffffff16815260200190815260200160002060008201518160000190805190602001906108d3929190611ce4565b5060208201518160010160006101000a81548173ffffffffffffffffffffffffffffffffffffffff021916908373ffffffffffffffffffffffffffffffffffffffff1602179055506040820151816002015590505060033390806001815401808255809150509060018203906000526020600020016000909192909190916101000a81548173ffffffffffffffffffffffffffffffffffffffff021916908373ffffffffffffffffffffffffffffffffffffffff16021790555050505050565b6000803373ffffffffffffffffffffffffffffffffffffffff1673ffffffffffffffffffffffffffffffffffffffff16815260200190815260200160002060010160009054906101000a900473ffffffffffffffffffffffffffffffffffffffff1673ffffffffffffffffffffffffffffffffffffffff163373ffffffffffffffffffffffffffffffffffffffff16141515610abd576040517f08c379a00000000000000000000000000000000000000000000000000000000081526004018080602001828103825260338152602001807f53656e6465722077616c6c65742061646472657373206d75737420657869737481526020017f20696e206d656d62657273206d617070696e670000000000000000000000000081525060400191505060405180910390fd5b6001600260006101000a81548160ff021916908315150217905550565b600081111515610b78576040517f08c379a000000000000000000000000000000000000000000000000000000000815260040180806020018281038252602a8152602001807f416e20657870656e7365206e6565647320746f206861766520616e20616d6f7581526020017f6e742061626f766520300000000000000000000000000000000000000000000081525060400191505060405180910390fd5b6000803373ffffffffffffffffffffffffffffffffffffffff1673ffffffffffffffffffffffffffffffffffffffff16815260200190815260200160002060010160009054906101000a900473ffffffffffffffffffffffffffffffffffffffff1673ffffffffffffffffffffffffffffffffffffffff163373ffffffffffffffffffffffffffffffffffffffff16141515610ca2576040517f08c379a00000000000000000000000000000000000000000000000000000000081526004018080602001828103825260338152602001807f53656e6465722077616c6c65742061646472657373206d75737420657869737481526020017f20696e206d656d62657273206d617070696e670000000000000000000000000081525060400191505060405180910390fd5b600260009054906101000a900460ff161515610d4c576040517f08c379a000000000000000000000000000000000000000000000000000000000815260040180806020018281038252602f8152602001807f47726f7570206d75737420626520636c6f73656420746f20737461727420637281526020017f656174696e6720657870656e736573000000000000000000000000000000000081525060400191505060405180910390fd5b610d54611d64565b60606040519081016040528085858080601f016020809104026020016040519081016040528093929190818152602001838380828437600081840152601f19601f8201169050808301925050505050505081526020018381526020013373ffffffffffffffffffffffffffffffffffffffff168152509050600181908060018154018082558091505090600182039060005260206000209060030201600090919290919091506000820151816000019080519060200190610e16929190611ce4565b506020820151816001015560408201518160020160006101000a81548173ffffffffffffffffffffffffffffffffffffffff021916908373ffffffffffffffffffffffffffffffffffffffff160217905550505050600060038054905083811515610e7d57fe5b04905060016003805490500381026000803373ffffffffffffffffffffffffffffffffffffffff1673ffffffffffffffffffffffffffffffffffffffff1681526020019081526020016000206002016000828254019250508190555060008090505b6003805490508110156110e9573373ffffffffffffffffffffffffffffffffffffffff16600080600384815481101515610f1557fe5b9060005260206000200160009054906101000a900473ffffffffffffffffffffffffffffffffffffffff1673ffffffffffffffffffffffffffffffffffffffff1673ffffffffffffffffffffffffffffffffffffffff16815260200190815260200160002060010160009054906101000a900473ffffffffffffffffffffffffffffffffffffffff1673ffffffffffffffffffffffffffffffffffffffff161415156110dc576110db82600080600385815481101515610fd157fe5b9060005260206000200160009054906101000a900473ffffffffffffffffffffffffffffffffffffffff1673ffffffffffffffffffffffffffffffffffffffff1673ffffffffffffffffffffffffffffffffffffffff168152602001908152602001600020600201540360008060038581548110151561104d57fe5b9060005260206000200160009054906101000a900473ffffffffffffffffffffffffffffffffffffffff1673ffffffffffffffffffffffffffffffffffffffff1673ffffffffffffffffffffffffffffffffffffffff16815260200190815260200160002060010160009054906101000a900473ffffffffffffffffffffffffffffffffffffffff16611c62565b5b8080600101915050610edf565b505050505050565b6060600260009054906101000a900460ff1615611145576040805190810160405280600f81526020017f47726f757020697320636c6f7365640000000000000000000000000000000000815250905061117e565b6040805190810160405280600d81526020017f47726f7570206973206f70656e0000000000000000000000000000000000000081525090505b90565b60018181548110151561119057fe5b9060005260206000209060030201600091509050806000018054600181600116156101000203166002900480601f01602080910402602001604051908101604052809291908181526020018280546001816001161561010002031660029004801561123c5780601f106112115761010080835404028352916020019161123c565b820191906000526020600020905b81548152906001019060200180831161121f57829003601f168201915b5050505050908060010154908060020160009054906101000a900473ffffffffffffffffffffffffffffffffffffffff16905083565b6000803373ffffffffffffffffffffffffffffffffffffffff1673ffffffffffffffffffffffffffffffffffffffff16815260200190815260200160002060010160009054906101000a900473ffffffffffffffffffffffffffffffffffffffff1673ffffffffffffffffffffffffffffffffffffffff163373ffffffffffffffffffffffffffffffffffffffff1614151561139c576040517f08c379a000000000000000000000000000000000000000000000000000000000815260040180806020018281038252602c8152602001807f53656e6465722061646472657373206d75737420657869737420696e206d656d81526020017f62657273206d617070696e67000000000000000000000000000000000000000081525060400191505060405180910390fd5b60008060003373ffffffffffffffffffffffffffffffffffffffff1673ffffffffffffffffffffffffffffffffffffffff16815260200190815260200160002060020154121515611455576040517f08c379a00000000000000000000000000000000000000000000000000000000081526004018080602001828103825260188152602001807f53656e646572206d757374206f776520746f2067726f7570000000000000000081525060200191505060405180910390fd5b6000341115156114f3576040517f08c379a00000000000000000000000000000000000000000000000000000000081526004018080602001828103825260258152602001807f5468657265206d75737420626520616e20616d6f756e74206c6172676572207481526020017f68616e203000000000000000000000000000000000000000000000000000000081525060400191505060405180910390fd5b600064e8d4a510006000803373ffffffffffffffffffffffffffffffffffffffff1673ffffffffffffffffffffffffffffffffffffffff168152602001908152602001600020600201540290506000813401905060008114156115605761155b600033611c62565b6115dc565b60008113156115c057611574600033611c62565b3373ffffffffffffffffffffffffffffffffffffffff166108fc829081150290604051600060405180830381858888f193505050501580156115ba573d6000803e3d6000fd5b506115db565b6115da64e8d4a51000828115156115d357fe5b0533611c62565b5b5b5050565b6000803373ffffffffffffffffffffffffffffffffffffffff1673ffffffffffffffffffffffffffffffffffffffff16815260200190815260200160002060010160009054906101000a900473ffffffffffffffffffffffffffffffffffffffff1673ffffffffffffffffffffffffffffffffffffffff163373ffffffffffffffffffffffffffffffffffffffff1614151561170a576040517f08c379a000000000000000000000000000000000000000000000000000000000815260040180806020018281038252602c8152602001807f53656e6465722061646472657373206d75737420657869737420696e206d656d81526020017f62657273206d617070696e67000000000000000000000000000000000000000081525060400191505060405180910390fd5b60008090505b60038054905081101561193557600080600060038481548110151561173157fe5b9060005260206000200160009054906101000a900473ffffffffffffffffffffffffffffffffffffffff1673ffffffffffffffffffffffffffffffffffffffff1673ffffffffffffffffffffffffffffffffffffffff1681526020019081526020016000206002015413156119285760008060006003848154811015156117b457fe5b9060005260206000200160009054906101000a900473ffffffffffffffffffffffffffffffffffffffff1673ffffffffffffffffffffffffffffffffffffffff1673ffffffffffffffffffffffffffffffffffffffff168152602001908152602001600020600201549050600080600060038581548110151561183357fe5b9060005260206000200160009054906101000a900473ffffffffffffffffffffffffffffffffffffffff1673ffffffffffffffffffffffffffffffffffffffff1673ffffffffffffffffffffffffffffffffffffffff168152602001908152602001600020600201819055506003828154811015156118ae57fe5b9060005260206000200160009054906101000a900473ffffffffffffffffffffffffffffffffffffffff1673ffffffffffffffffffffffffffffffffffffffff166108fc64e8d4a5100083029081150290604051600060405180830381858888f19350505050158015611925573d6000803e3d6000fd5b50505b8080600101915050611710565b50565b606060008060003373ffffffffffffffffffffffffffffffffffffffff1673ffffffffffffffffffffffffffffffffffffffff1681526020019081526020016000206000016000803373ffffffffffffffffffffffffffffffffffffffff1673ffffffffffffffffffffffffffffffffffffffff16815260200190815260200160002060020154818054600181600116156101000203166002900480601f016020809104026020016040519081016040528092919081815260200182805460018160011615610100020316600290048015611a545780601f10611a2957610100808354040283529160200191611a54565b820191906000526020600020905b815481529060010190602001808311611a3757829003601f168201915b50505050509150915091509091565b6000803373ffffffffffffffffffffffffffffffffffffffff1673ffffffffffffffffffffffffffffffffffffffff16815260200190815260200160002060010160009054906101000a900473ffffffffffffffffffffffffffffffffffffffff1673ffffffffffffffffffffffffffffffffffffffff163373ffffffffffffffffffffffffffffffffffffffff16141515611b8d576040517f08c379a00000000000000000000000000000000000000000000000000000000081526004018080602001828103825260338152602001807f53656e6465722077616c6c65742061646472657373206d75737420657869737481526020017f20696e206d656d62657273206d617070696e670000000000000000000000000081525060400191505060405180910390fd5b60006001905060008090505b600380549050811015611c3c576000806000600384815481101515611bba57fe5b9060005260206000200160009054906101000a900473ffffffffffffffffffffffffffffffffffffffff1673ffffffffffffffffffffffffffffffffffffffff1673ffffffffffffffffffffffffffffffffffffffff16815260200190815260200160002060020154141515611c2f57600091505b8080600101915050611b99565b508015611c5f576000600260006101000a81548160ff0219169083151502179055505b50565b816000808373ffffffffffffffffffffffffffffffffffffffff1673ffffffffffffffffffffffffffffffffffffffff168152602001908152602001600020600201819055505050565b60606040519081016040528060608152602001600073ffffffffffffffffffffffffffffffffffffffff168152602001600081525090565b828054600181600116156101000203166002900490600052602060002090601f016020900481019282601f10611d2557805160ff1916838001178555611d53565b82800160010185558215611d53579182015b82811115611d52578251825591602001919060010190611d37565b5b509050611d609190611d9c565b5090565b6060604051908101604052806060815260200160008152602001600073ffffffffffffffffffffffffffffffffffffffff1681525090565b611dbe91905b80821115611dba576000816000905550600101611da2565b5090565b9056fea165627a7a723058202b2ede7919bc3c4a829859f9766a6de1386561881871a1e84aa663fa3126fd0b0029",
  "source": "pragma solidity >= 0.5.0 < 0.7.0;\n\ncontract WieBetaaltWat {\n\n    struct Member {\n      string name;\n      address walletAddress;\n      int balance;\n    }\n\n    struct Expense {\n      string title;\n      uint amount;\n      address payer;\n    }\n\n    mapping(address => Member) public members;\n    Expense[] public expenses;\n    bool groupClosed;\n    address payable[] internal memberAddresses;\n\n    constructor() public {\n        groupClosed = false;\n    }\n\n    // Add new member to group\n    function addMember(string calldata name) external {\n        require(\n            msg.sender != members[msg.sender].walletAddress,\n            \"Member can have only one address\"\n        );\n        require(!groupClosed, \"Group is closed\");\n        Member memory member = Member({name: name, walletAddress: msg.sender, balance: 0});\n        members[msg.sender] = member;\n        memberAddresses.push(msg.sender);\n    }\n\n    // Create expense, amount is stored in Szabo (factor 12). Gwei is used because 'ether'(factor 18) will cause decimals to exist. The smalles\n    // factor, wei (factor 0), is not used because storing very large numbers causes exceptions.\n    function createExpense(string calldata title, uint amount) external {\n        require(amount > 0, \"An expense needs to have an amount above 0\");\n        require(msg.sender == members[msg.sender].walletAddress, \"Sender wallet address must exist in members mapping\");\n        require(groupClosed, \"Group must be closed to start creating expenses\");\n\n        Expense memory expense = Expense(title, amount, msg.sender);\n        expenses.push(expense);\n\n        uint pricePerMember = amount / memberAddresses.length;\n\n        // Update sender balance\n        members[msg.sender].balance += int(pricePerMember * (memberAddresses.length - 1));\n\n        for(uint i = 0; i < memberAddresses.length; i++) {\n            // For every member apart from expense creator, update balance\n            if(members[memberAddresses[i]].walletAddress != msg.sender) {\n                updateBalance(\n                    members[memberAddresses[i]].balance - int(pricePerMember),\n                    members[memberAddresses[i]].walletAddress);\n            }\n        }\n    }\n\n    // Store ether inside contract\n    function deposit() external payable {\n        require(msg.sender == members[msg.sender].walletAddress, \"Sender address must exist in members mapping\");\n        require(members[msg.sender].balance < 0, \"Sender must owe to group\");\n        require(msg.value > 0, \"There must be an amount larger than 0\");\n\n        // Balance is converted from Szabo (factor 12) to wei (factor 0)\n        int i = (members[msg.sender].balance * 10**12);\n        int j = int(msg.value) + i;\n\n        if(j == 0) {\n            // Sender pays his debts exactly\n            updateBalance(0, msg.sender);\n        } else if (j > 0) {\n            // Sender pays too much\n            updateBalance(0, msg.sender);\n            msg.sender.transfer(uint(j));\n        } else {\n            // Sender pays part of his debts, i converted from wei (factor 0) to Szabo (factor 12)\n            updateBalance((j / 10**12), msg.sender);\n        }\n    }\n\n    // Pay members with positive balances.\n    function payMembers() external {\n        require(msg.sender == members[msg.sender].walletAddress, \"Sender address must exist in members mapping\");\n        // All members must have a positive balance or a balance equal to zero\n        for(uint i = 0; i < memberAddresses.length; i++) {\n            if(members[memberAddresses[i]].balance > 0) {\n                // Pay member and set balance to 0\n                int balance = members[memberAddresses[i]].balance;\n                members[memberAddresses[i]].balance = 0;\n                memberAddresses[i].transfer(uint(balance * 10**12));\n            }\n        }\n    }\n\n    function closeGroup() external {\n        require(msg.sender == members[msg.sender].walletAddress, \"Sender wallet address must exist in members mapping\");\n        groupClosed = true;\n    }\n\n    // Open group only when all member balances are equal to 0\n    function openGroup() external {\n        require(msg.sender == members[msg.sender].walletAddress, \"Sender wallet address must exist in members mapping\");\n        bool balancesEqualZero = true;\n\n        for(uint i = 0; i < memberAddresses.length; i++) {\n            if(members[memberAddresses[i]].balance != 0) {\n                balancesEqualZero = false;\n            }\n        }\n\n        if (balancesEqualZero) {\n            groupClosed = false;\n        }\n    }\n\n    function updateBalance(int updatedBalance, address memberAddress) internal {\n        members[memberAddress].balance = updatedBalance;\n    }\n\n    function getPersonalBalance() external view returns(string memory, int) {\n        return (members[msg.sender].name, members[msg.sender].balance);\n    }\n\n    function getContractBalance() external view returns(uint) {\n        address cAddress = address(this);\n        // Show contract balance in szabo (error: number can only safely store up to 53 bits)\n        return cAddress.balance / 10**12;\n    }\n\n    function getGroupStatus() external view returns(string memory) {\n        if(groupClosed) {\n            return \"Group is closed\";\n        } else {\n            return \"Group is open\";\n        }\n    }\n}\n",
  "sourcePath": "/home/lars/dev/ethereum/wie-betaalt-wat/contracts/WieBetaaltWat.sol",
  "compiler": {
    "name": "solc",
    "version": "0.5.1+commit.c8a2cb62.Emscripten.clang"
  },
  "schemaVersion": "3.0.23",
  "updatedAt": "2020-04-05T19:26:17.227Z",
  "networkType": "ethereum",
  "devdoc": {
    "methods": {}
  },
  "userdoc": {
    "methods": {}
  }
}